{
  "contractName": "MySwap",
  "abi": [
    {
      "anonymous": false,
      "inputs": [
        {
          "indexed": true,
          "internalType": "address",
          "name": "_swapAddress",
          "type": "address"
        },
        {
          "indexed": false,
          "internalType": "address",
          "name": "_owner1",
          "type": "address"
        },
        {
          "indexed": false,
          "internalType": "uint256",
          "name": "_timeEnded",
          "type": "uint256"
        }
      ],
      "name": "SwapForfeited",
      "type": "event"
    },
    {
      "anonymous": false,
      "inputs": [
        {
          "indexed": true,
          "internalType": "address",
          "name": "_swapAddress",
          "type": "address"
        },
        {
          "indexed": false,
          "internalType": "address",
          "name": "_owner2",
          "type": "address"
        },
        {
          "indexed": false,
          "internalType": "uint256",
          "name": "_timeEnded",
          "type": "uint256"
        }
      ],
      "name": "SwapFulfilled",
      "type": "event"
    },
    {
      "anonymous": false,
      "inputs": [
        {
          "indexed": true,
          "internalType": "address",
          "name": "_swapAddress",
          "type": "address"
        },
        {
          "indexed": false,
          "internalType": "address",
          "name": "_owner1",
          "type": "address"
        },
        {
          "indexed": false,
          "internalType": "uint256",
          "name": "_timeStarted",
          "type": "uint256"
        }
      ],
      "name": "SwapInitiated",
      "type": "event"
    },
    {
      "inputs": [
        {
          "internalType": "address",
          "name": "_owner2",
          "type": "address"
        },
        {
          "internalType": "address",
          "name": "_token1",
          "type": "address"
        },
        {
          "internalType": "address",
          "name": "_token2",
          "type": "address"
        },
        {
          "internalType": "uint256",
          "name": "_amount1",
          "type": "uint256"
        },
        {
          "internalType": "uint256",
          "name": "_amount2",
          "type": "uint256"
        }
      ],
      "name": "initiateSwap",
      "outputs": [
        {
          "internalType": "address",
          "name": "",
          "type": "address"
        }
      ],
      "stateMutability": "nonpayable",
      "type": "function"
    },
    {
      "inputs": [
        {
          "internalType": "address",
          "name": "_swapAddress",
          "type": "address"
        }
      ],
      "name": "fulfillSwap",
      "outputs": [],
      "stateMutability": "nonpayable",
      "type": "function"
    },
    {
      "inputs": [
        {
          "internalType": "address",
          "name": "_swapAddress",
          "type": "address"
        }
      ],
      "name": "forfeitSwap",
      "outputs": [],
      "stateMutability": "nonpayable",
      "type": "function"
    },
    {
      "inputs": [],
      "name": "getInitiatedSwaps",
      "outputs": [
        {
          "components": [
            {
              "internalType": "address",
              "name": "swapWith",
              "type": "address"
            },
            {
              "internalType": "address",
              "name": "swapAddress",
              "type": "address"
            },
            {
              "components": [
                {
                  "internalType": "address",
                  "name": "tokenAddress",
                  "type": "address"
                },
                {
                  "internalType": "string",
                  "name": "symbol",
                  "type": "string"
                },
                {
                  "internalType": "uint256",
                  "name": "amount",
                  "type": "uint256"
                }
              ],
              "internalType": "struct TokenDetails",
              "name": "token1",
              "type": "tuple"
            },
            {
              "components": [
                {
                  "internalType": "address",
                  "name": "tokenAddress",
                  "type": "address"
                },
                {
                  "internalType": "string",
                  "name": "symbol",
                  "type": "string"
                },
                {
                  "internalType": "uint256",
                  "name": "amount",
                  "type": "uint256"
                }
              ],
              "internalType": "struct TokenDetails",
              "name": "token2",
              "type": "tuple"
            },
            {
              "internalType": "uint256",
              "name": "timeStarted",
              "type": "uint256"
            },
            {
              "internalType": "uint256",
              "name": "timeEnded",
              "type": "uint256"
            },
            {
              "internalType": "enum SwapRequestState",
              "name": "state",
              "type": "uint8"
            }
          ],
          "internalType": "struct SwapDetails[]",
          "name": "",
          "type": "tuple[]"
        }
      ],
      "stateMutability": "view",
      "type": "function",
      "constant": true
    },
    {
      "inputs": [],
      "name": "getPendingSwaps",
      "outputs": [
        {
          "components": [
            {
              "internalType": "address",
              "name": "swapWith",
              "type": "address"
            },
            {
              "internalType": "address",
              "name": "swapAddress",
              "type": "address"
            },
            {
              "components": [
                {
                  "internalType": "address",
                  "name": "tokenAddress",
                  "type": "address"
                },
                {
                  "internalType": "string",
                  "name": "symbol",
                  "type": "string"
                },
                {
                  "internalType": "uint256",
                  "name": "amount",
                  "type": "uint256"
                }
              ],
              "internalType": "struct TokenDetails",
              "name": "token1",
              "type": "tuple"
            },
            {
              "components": [
                {
                  "internalType": "address",
                  "name": "tokenAddress",
                  "type": "address"
                },
                {
                  "internalType": "string",
                  "name": "symbol",
                  "type": "string"
                },
                {
                  "internalType": "uint256",
                  "name": "amount",
                  "type": "uint256"
                }
              ],
              "internalType": "struct TokenDetails",
              "name": "token2",
              "type": "tuple"
            },
            {
              "internalType": "uint256",
              "name": "timeStarted",
              "type": "uint256"
            },
            {
              "internalType": "uint256",
              "name": "timeEnded",
              "type": "uint256"
            },
            {
              "internalType": "enum SwapRequestState",
              "name": "state",
              "type": "uint8"
            }
          ],
          "internalType": "struct SwapDetails[]",
          "name": "",
          "type": "tuple[]"
        }
      ],
      "stateMutability": "view",
      "type": "function",
      "constant": true
    }
  ],
  "bytecode": "0x608060405234801561001057600080fd5b5061254b806100206000396000f3fe60806040523480156200001157600080fd5b50600436106200005e5760003560e01c8063595e073014620000635780639a2010791462000083578063a354fed114620000b9578063b14ff51b14620000d9578063c31e7ab914620000fb575b600080fd5b6200008160048036038101906200007b919062000ad7565b6200011d565b005b620000a160048036038101906200009b919062000b44565b620001e1565b604051620000b0919062000bdd565b60405180910390f35b620000d76004803603810190620000d1919062000ad7565b620003d2565b005b620000e362000496565b604051620000f2919062000f17565b60405180910390f35b6200010562000571565b60405162000114919062000f17565b60405180910390f35b8073ffffffffffffffffffffffffffffffffffffffff1663f66e88b1336040518263ffffffff1660e01b815260040162000158919062000bdd565b600060405180830381600087803b1580156200017357600080fd5b505af115801562000188573d6000803e3d6000fd5b505050508073ffffffffffffffffffffffffffffffffffffffff167f6cf1b8a62fd261b9091532a36f52d0e81f8fbf0032318b3f3659b817c6e0954f3342604051620001d692919062000f4c565b60405180910390a250565b600080338787878787604051620001f8906200098b565b620002099695949392919062000f79565b604051809103906000f08015801562000226573d6000803e3d6000fd5b50905060008190506000803373ffffffffffffffffffffffffffffffffffffffff1673ffffffffffffffffffffffffffffffffffffffff168152602001908152602001600020600001819080600181540180825580915050600190039060005260206000200160009091909190916101000a81548173ffffffffffffffffffffffffffffffffffffffff021916908373ffffffffffffffffffffffffffffffffffffffff1602179055506000808973ffffffffffffffffffffffffffffffffffffffff1673ffffffffffffffffffffffffffffffffffffffff168152602001908152602001600020600101819080600181540180825580915050600190039060005260206000200160009091909190916101000a81548173ffffffffffffffffffffffffffffffffffffffff021916908373ffffffffffffffffffffffffffffffffffffffff1602179055508073ffffffffffffffffffffffffffffffffffffffff167fb9b53e5cf33c508b86fd199ef9cfdda8ee6b149900427661b0a751fb8fd34f663342604051620003bc92919062000f4c565b60405180910390a2809250505095945050505050565b8073ffffffffffffffffffffffffffffffffffffffff166303438dd0336040518263ffffffff1660e01b81526004016200040d919062000bdd565b600060405180830381600087803b1580156200042857600080fd5b505af11580156200043d573d6000803e3d6000fd5b505050508073ffffffffffffffffffffffffffffffffffffffff167f24a74691eec37a00fae20aee7eb7efefa0a33e968c535459850ab7320cee662333426040516200048b92919062000f4c565b60405180910390a250565b60606200056c6000803373ffffffffffffffffffffffffffffffffffffffff1673ffffffffffffffffffffffffffffffffffffffff1681526020019081526020016000206000018054806020026020016040519081016040528092919081815260200182805480156200055f57602002820191906000526020600020905b8160009054906101000a900473ffffffffffffffffffffffffffffffffffffffff1673ffffffffffffffffffffffffffffffffffffffff168152602001906001019080831162000514575b505050505060006200064c565b905090565b6060620006476000803373ffffffffffffffffffffffffffffffffffffffff1673ffffffffffffffffffffffffffffffffffffffff1681526020019081526020016000206001018054806020026020016040519081016040528092919081815260200182805480156200063a57602002820191906000526020600020905b8160009054906101000a900473ffffffffffffffffffffffffffffffffffffffff1673ffffffffffffffffffffffffffffffffffffffff1681526020019060010190808311620005ef575b505050505060016200064c565b905090565b60606000835167ffffffffffffffff8111156200066e576200066d62000fe6565b5b604051908082528060200260200182016040528015620006ab57816020015b6200069762000999565b8152602001906001900390816200068d5790505b50905060005b845181101562000980576000858281518110620006d357620006d262001015565b5b6020026020010151905060008060008060008060008060008973ffffffffffffffffffffffffffffffffffffffff1663fbbf93a06040518163ffffffff1660e01b815260040161012060405180830381865afa15801562000738573d6000803e3d6000fd5b505050506040513d601f19601f820116820180604052508101906200075e91906200109a565b9850985098509850985098509850985098506040518060e001604052808f6200078857886200078a565b895b73ffffffffffffffffffffffffffffffffffffffff1681526020018b73ffffffffffffffffffffffffffffffffffffffff16815260200160405180606001604052808973ffffffffffffffffffffffffffffffffffffffff1681526020018973ffffffffffffffffffffffffffffffffffffffff166395d89b416040518163ffffffff1660e01b8152600401600060405180830381865afa15801562000834573d6000803e3d6000fd5b505050506040513d6000823e3d601f19601f820116820180604052508101906200085f91906200128c565b815260200187815250815260200160405180606001604052808873ffffffffffffffffffffffffffffffffffffffff1681526020018873ffffffffffffffffffffffffffffffffffffffff166395d89b416040518163ffffffff1660e01b8152600401600060405180830381865afa158015620008e0573d6000803e3d6000fd5b505050506040513d6000823e3d601f19601f820116820180604052508101906200090b91906200128c565b81526020018681525081526020018381526020018281526020018a60028111156200093b576200093a62000d42565b5b8152508c8c8151811062000954576200095362001015565b5b6020026020010181905250505050505050505050506001816200097891906200130c565b9050620006b1565b508091505092915050565b6111ac806200136a83390190565b6040518060e00160405280600073ffffffffffffffffffffffffffffffffffffffff168152602001600073ffffffffffffffffffffffffffffffffffffffff168152602001620009e862000a27565b8152602001620009f762000a27565b815260200160008152602001600081526020016000600281111562000a215762000a2062000d42565b5b81525090565b6040518060600160405280600073ffffffffffffffffffffffffffffffffffffffff16815260200160608152602001600081525090565b6000604051905090565b600080fd5b600080fd5b600073ffffffffffffffffffffffffffffffffffffffff82169050919050565b600062000a9f8262000a72565b9050919050565b62000ab18162000a92565b811462000abd57600080fd5b50565b60008135905062000ad18162000aa6565b92915050565b60006020828403121562000af05762000aef62000a68565b5b600062000b008482850162000ac0565b91505092915050565b6000819050919050565b62000b1e8162000b09565b811462000b2a57600080fd5b50565b60008135905062000b3e8162000b13565b92915050565b600080600080600060a0868803121562000b635762000b6262000a68565b5b600062000b738882890162000ac0565b955050602062000b868882890162000ac0565b945050604062000b998882890162000ac0565b935050606062000bac8882890162000b2d565b925050608062000bbf8882890162000b2d565b9150509295509295909350565b62000bd78162000a92565b82525050565b600060208201905062000bf4600083018462000bcc565b92915050565b600081519050919050565b600082825260208201905092915050565b6000819050602082019050919050565b62000c318162000a92565b82525050565b600081519050919050565b600082825260208201905092915050565b60005b8381101562000c7357808201518184015260208101905062000c56565b8381111562000c83576000848401525b50505050565b6000601f19601f8301169050919050565b600062000ca78262000c37565b62000cb3818562000c42565b935062000cc581856020860162000c53565b62000cd08162000c89565b840191505092915050565b62000ce68162000b09565b82525050565b600060608301600083015162000d06600086018262000c26565b506020830151848203602086015262000d20828262000c9a565b915050604083015162000d37604086018262000cdb565b508091505092915050565b7f4e487b7100000000000000000000000000000000000000000000000000000000600052602160045260246000fd5b6003811062000d855762000d8462000d42565b5b50565b600081905062000d988262000d71565b919050565b600062000daa8262000d88565b9050919050565b62000dbc8162000d9d565b82525050565b600060e08301600083015162000ddc600086018262000c26565b50602083015162000df1602086018262000c26565b506040830151848203604086015262000e0b828262000cec565b9150506060830151848203606086015262000e27828262000cec565b915050608083015162000e3e608086018262000cdb565b5060a083015162000e5360a086018262000cdb565b5060c083015162000e6860c086018262000db1565b508091505092915050565b600062000e81838362000dc2565b905092915050565b6000602082019050919050565b600062000ea38262000bfa565b62000eaf818562000c05565b93508360208202850162000ec38562000c16565b8060005b8581101562000f05578484038952815162000ee3858262000e73565b945062000ef08362000e89565b925060208a0199505060018101905062000ec7565b50829750879550505050505092915050565b6000602082019050818103600083015262000f33818462000e96565b905092915050565b62000f468162000b09565b82525050565b600060408201905062000f63600083018562000bcc565b62000f72602083018462000f3b565b9392505050565b600060c08201905062000f90600083018962000bcc565b62000f9f602083018862000bcc565b62000fae604083018762000bcc565b62000fbd606083018662000bcc565b62000fcc608083018562000f3b565b62000fdb60a083018462000f3b565b979650505050505050565b7f4e487b7100000000000000000000000000000000000000000000000000000000600052604160045260246000fd5b7f4e487b7100000000000000000000000000000000000000000000000000000000600052603260045260246000fd5b600381106200105257600080fd5b50565b600081519050620010668162001044565b92915050565b6000815190506200107d8162000aa6565b92915050565b600081519050620010948162000b13565b92915050565b60008060008060008060008060006101208a8c031215620010c057620010bf62000a68565b5b6000620010d08c828d0162001055565b9950506020620010e38c828d016200106c565b9850506040620010f68c828d016200106c565b9750506060620011098c828d016200106c565b96505060806200111c8c828d016200106c565b95505060a06200112f8c828d0162001083565b94505060c0620011428c828d0162001083565b93505060e0620011558c828d0162001083565b925050610100620011698c828d0162001083565b9150509295985092959850929598565b600080fd5b600080fd5b6200118e8262000c89565b810181811067ffffffffffffffff82111715620011b057620011af62000fe6565b5b80604052505050565b6000620011c562000a5e565b9050620011d3828262001183565b919050565b600067ffffffffffffffff821115620011f657620011f562000fe6565b5b620012018262000c89565b9050602081019050919050565b6000620012256200121f84620011d8565b620011b9565b9050828152602081018484840111156200124457620012436200117e565b5b6200125184828562000c53565b509392505050565b600082601f83011262001271576200127062001179565b5b8151620012838482602086016200120e565b91505092915050565b600060208284031215620012a557620012a462000a68565b5b600082015167ffffffffffffffff811115620012c657620012c562000a6d565b5b620012d48482850162001259565b91505092915050565b7f4e487b7100000000000000000000000000000000000000000000000000000000600052601160045260246000fd5b6000620013198262000b09565b9150620013268362000b09565b9250827fffffffffffffffffffffffffffffffffffffffffffffffffffffffffffffffff038211156200135e576200135d620012dd565b5b82820190509291505056fe60806040523480156200001157600080fd5b50604051620011ac380380620011ac8339818101604052810190620000379190620002a0565b8473ffffffffffffffffffffffffffffffffffffffff168673ffffffffffffffffffffffffffffffffffffffff161415620000a9576040517f08c379a0000000000000000000000000000000000000000000000000000000008152600401620000a0906200039d565b60405180910390fd5b85600260006101000a81548173ffffffffffffffffffffffffffffffffffffffff021916908373ffffffffffffffffffffffffffffffffffffffff16021790555084600360006101000a81548173ffffffffffffffffffffffffffffffffffffffff021916908373ffffffffffffffffffffffffffffffffffffffff160217905550836000806101000a81548173ffffffffffffffffffffffffffffffffffffffff021916908373ffffffffffffffffffffffffffffffffffffffff16021790555082600160006101000a81548173ffffffffffffffffffffffffffffffffffffffff021916908373ffffffffffffffffffffffffffffffffffffffff16021790555081600481905550806005819055506000600860006101000a81548160ff02191690836002811115620001e357620001e2620003bf565b5b021790555042600681905550505050505050620003ee565b600080fd5b600073ffffffffffffffffffffffffffffffffffffffff82169050919050565b60006200022d8262000200565b9050919050565b6200023f8162000220565b81146200024b57600080fd5b50565b6000815190506200025f8162000234565b92915050565b6000819050919050565b6200027a8162000265565b81146200028657600080fd5b50565b6000815190506200029a816200026f565b92915050565b60008060008060008060c08789031215620002c057620002bf620001fb565b5b6000620002d089828a016200024e565b9650506020620002e389828a016200024e565b9550506040620002f689828a016200024e565b94505060606200030989828a016200024e565b93505060806200031c89828a0162000289565b92505060a06200032f89828a0162000289565b9150509295509295509295565b600082825260208201905092915050565b7f43616e6e6f74207377617020776974682073656c660000000000000000000000600082015250565b6000620003856015836200033c565b915062000392826200034d565b602082019050919050565b60006020820190508181036000830152620003b88162000376565b9050919050565b7f4e487b7100000000000000000000000000000000000000000000000000000000600052602160045260246000fd5b610dae80620003fe6000396000f3fe608060405234801561001057600080fd5b50600436106100415760003560e01c806303438dd014610046578063f66e88b114610062578063fbbf93a01461007e575b600080fd5b610060600480360381019061005b9190610876565b6100a4565b005b61007c60048036038101906100779190610876565b610605565b005b610086610742565b60405161009b99989796959493929190610942565b60405180910390f35b60008060028111156100b9576100b86108a3565b5b600860009054906101000a900460ff1660028111156100db576100da6108a3565b5b1461011b576040517f08c379a000000000000000000000000000000000000000000000000000000000815260040161011290610a2c565b60405180910390fd5b600360009054906101000a900473ffffffffffffffffffffffffffffffffffffffff1673ffffffffffffffffffffffffffffffffffffffff168273ffffffffffffffffffffffffffffffffffffffff16146101ab576040517f08c379a00000000000000000000000000000000000000000000000000000000081526004016101a290610a98565b60405180910390fd5b60045460008054906101000a900473ffffffffffffffffffffffffffffffffffffffff1673ffffffffffffffffffffffffffffffffffffffff166370a08231600260009054906101000a900473ffffffffffffffffffffffffffffffffffffffff166040518263ffffffff1660e01b81526004016102299190610ab8565b602060405180830381865afa158015610246573d6000803e3d6000fd5b505050506040513d601f19601f8201168201806040525081019061026a9190610aff565b10156102ab576040517f08c379a00000000000000000000000000000000000000000000000000000000081526004016102a290610b78565b60405180910390fd5b600554600160009054906101000a900473ffffffffffffffffffffffffffffffffffffffff1673ffffffffffffffffffffffffffffffffffffffff166370a08231600360009054906101000a900473ffffffffffffffffffffffffffffffffffffffff166040518263ffffffff1660e01b815260040161032b9190610ab8565b602060405180830381865afa158015610348573d6000803e3d6000fd5b505050506040513d601f19601f8201168201806040525081019061036c9190610aff565b10156103ad576040517f08c379a00000000000000000000000000000000000000000000000000000000081526004016103a490610be4565b60405180910390fd5b60008060009054906101000a900473ffffffffffffffffffffffffffffffffffffffff1673ffffffffffffffffffffffffffffffffffffffff166323b872dd600260009054906101000a900473ffffffffffffffffffffffffffffffffffffffff16600360009054906101000a900473ffffffffffffffffffffffffffffffffffffffff166004546040518463ffffffff1660e01b815260040161045393929190610c04565b6020604051808303816000875af1158015610472573d6000803e3d6000fd5b505050506040513d601f19601f820116820180604052508101906104969190610c73565b90506000600160009054906101000a900473ffffffffffffffffffffffffffffffffffffffff1673ffffffffffffffffffffffffffffffffffffffff166323b872dd600360009054906101000a900473ffffffffffffffffffffffffffffffffffffffff16600260009054906101000a900473ffffffffffffffffffffffffffffffffffffffff166005546040518463ffffffff1660e01b815260040161053f93929190610c04565b6020604051808303816000875af115801561055e573d6000803e3d6000fd5b505050506040513d601f19601f820116820180604052508101906105829190610c73565b905081801561058e5750805b6105cd576040517f08c379a00000000000000000000000000000000000000000000000000000000081526004016105c490610cec565b60405180910390fd5b6002600860006101000a81548160ff021916908360028111156105f3576105f26108a3565b5b02179055505050504260078190555050565b600080600281111561061a576106196108a3565b5b600860009054906101000a900460ff16600281111561063c5761063b6108a3565b5b1461067c576040517f08c379a000000000000000000000000000000000000000000000000000000000815260040161067390610a2c565b60405180910390fd5b600260009054906101000a900473ffffffffffffffffffffffffffffffffffffffff1673ffffffffffffffffffffffffffffffffffffffff168273ffffffffffffffffffffffffffffffffffffffff161461070c576040517f08c379a000000000000000000000000000000000000000000000000000000000815260040161070390610d58565b60405180910390fd5b6001600860006101000a81548160ff02191690836002811115610732576107316108a3565b5b0217905550504260078190555050565b6000806000806000806000806000600860009054906101000a900460ff16600260009054906101000a900473ffffffffffffffffffffffffffffffffffffffff16600360009054906101000a900473ffffffffffffffffffffffffffffffffffffffff1660008054906101000a900473ffffffffffffffffffffffffffffffffffffffff16600160009054906101000a900473ffffffffffffffffffffffffffffffffffffffff16600454600554600654600754985098509850985098509850985098509850909192939495969798565b600080fd5b600073ffffffffffffffffffffffffffffffffffffffff82169050919050565b600061084382610818565b9050919050565b61085381610838565b811461085e57600080fd5b50565b6000813590506108708161084a565b92915050565b60006020828403121561088c5761088b610813565b5b600061089a84828501610861565b91505092915050565b7f4e487b7100000000000000000000000000000000000000000000000000000000600052602160045260246000fd5b600381106108e3576108e26108a3565b5b50565b60008190506108f4826108d2565b919050565b6000610904826108e6565b9050919050565b610914816108f9565b82525050565b61092381610838565b82525050565b6000819050919050565b61093c81610929565b82525050565b600061012082019050610958600083018c61090b565b610965602083018b61091a565b610972604083018a61091a565b61097f606083018961091a565b61098c608083018861091a565b61099960a0830187610933565b6109a660c0830186610933565b6109b360e0830185610933565b6109c1610100830184610933565b9a9950505050505050505050565b600082825260208201905092915050565b7f4572726f7220696e20636f6e7472616374207374617465000000000000000000600082015250565b6000610a166017836109cf565b9150610a21826109e0565b602082019050919050565b60006020820190508181036000830152610a4581610a09565b9050919050565b7f4e6f7420617574686f72697a656420746f207377617000000000000000000000600082015250565b6000610a826016836109cf565b9150610a8d82610a4c565b602082019050919050565b60006020820190508181036000830152610ab181610a75565b9050919050565b6000602082019050610acd600083018461091a565b92915050565b610adc81610929565b8114610ae757600080fd5b50565b600081519050610af981610ad3565b92915050565b600060208284031215610b1557610b14610813565b5b6000610b2384828501610aea565b91505092915050565b7f4f776e657220312068617320696e73756666696369656e742066756e64730000600082015250565b6000610b62601e836109cf565b9150610b6d82610b2c565b602082019050919050565b60006020820190508181036000830152610b9181610b55565b9050919050565b7f4f776e657220322068617320696e73756666696369656e742066756e64730000600082015250565b6000610bce601e836109cf565b9150610bd982610b98565b602082019050919050565b60006020820190508181036000830152610bfd81610bc1565b9050919050565b6000606082019050610c19600083018661091a565b610c26602083018561091a565b610c336040830184610933565b949350505050565b60008115159050919050565b610c5081610c3b565b8114610c5b57600080fd5b50565b600081519050610c6d81610c47565b92915050565b600060208284031215610c8957610c88610813565b5b6000610c9784828501610c5e565b91505092915050565b7f53776170206661696c6564000000000000000000000000000000000000000000600082015250565b6000610cd6600b836109cf565b9150610ce182610ca0565b602082019050919050565b60006020820190508181036000830152610d0581610cc9565b9050919050565b7f4e6f7420617574686f72697a656420746f20666f726665697400000000000000600082015250565b6000610d426019836109cf565b9150610d4d82610d0c565b602082019050919050565b60006020820190508181036000830152610d7181610d35565b905091905056fea2646970667358221220fd50922fa0daa8352981721d2921db2c89e7cc550595c01933eceee2040cd50b64736f6c634300080a0033a264697066735822122036d832f3728bf9a6f11ee06a42d2635f14176d74b662d8f7b7d45d1577171c9664736f6c634300080a0033",
  "immutableReferences": {},
  "source": "// SPDX-License-Identifier: MIT\r\npragma solidity >=0.4.22 <0.9.0;\r\npragma experimental ABIEncoderV2;\r\n\r\nimport \"openzeppelin-solidity/contracts/token/ERC20/IERC20.sol\";\r\nimport \"openzeppelin-solidity/contracts/token/ERC20/ERC20.sol\";\r\nimport \"./SwapRequest.sol\";\r\nimport \"./SwapRequestState.sol\";\r\nimport \"./struct/SwapDetails.sol\";\r\nimport \"./struct/TokenDetails.sol\";\r\n\r\ncontract MySwap {\r\n    struct SwapsPerAddress {\r\n        address[] initiatedSwaps;\r\n        address[] pendingSwaps;\r\n    }\r\n\r\n    mapping(address => SwapsPerAddress) mySwaps;\r\n\r\n    event SwapInitiated(address indexed _swapAddress, address _owner1, uint _timeStarted);\r\n    event SwapFulfilled(address indexed _swapAddress, address _owner2, uint _timeEnded);\r\n    event SwapForfeited(address indexed _swapAddress, address _owner1, uint _timeEnded);\r\n\r\n    function initiateSwap(address _owner2, address _token1, address _token2, uint _amount1, uint _amount2) public returns(address) {\r\n        SwapRequest swapRequest = new SwapRequest(msg.sender, _owner2, _token1, _token2, _amount1, _amount2);\r\n        address swapAddress = address(swapRequest);\r\n\r\n        mySwaps[msg.sender].initiatedSwaps.push(swapAddress);\r\n        mySwaps[_owner2].pendingSwaps.push(swapAddress);\r\n\r\n        emit SwapInitiated(swapAddress, msg.sender, block.timestamp);\r\n        return swapAddress;\r\n    }\r\n\r\n    function fulfillSwap(address _swapAddress) public {\r\n        SwapRequest(_swapAddress).swap(msg.sender);\r\n        emit SwapFulfilled(_swapAddress, msg.sender, block.timestamp);\r\n    }\r\n\r\n    function forfeitSwap(address _swapAddress) public {\r\n        SwapRequest(_swapAddress).forfeit(msg.sender);\r\n        emit SwapForfeited(_swapAddress, msg.sender, block.timestamp);\r\n    }\r\n\r\n    function getInitiatedSwaps() public view returns(SwapDetails[] memory) {        \r\n        return _processArray(mySwaps[msg.sender].initiatedSwaps, false);\r\n    }\r\n\r\n    function getPendingSwaps() public view returns(SwapDetails[] memory) {\r\n        return _processArray(mySwaps[msg.sender].pendingSwaps, true);\r\n    }\r\n\r\n    function _processArray(address[] memory _swapRequests, bool isPending) private view returns(SwapDetails[] memory) {\r\n        SwapDetails[] memory swapDetails = new SwapDetails[](_swapRequests.length);\r\n\r\n        for (uint i = 0; i < _swapRequests.length; i += 1) {\r\n            SwapRequest swapRequest = SwapRequest(_swapRequests[i]);\r\n\r\n            // check SwapRequest.sol for order of returned values\r\n            (\r\n                SwapRequestState state, \r\n                address owner1, \r\n                address owner2, \r\n                address token1, \r\n                address token2, \r\n                uint amount1, \r\n                uint amount2, \r\n                uint timeStarted, \r\n                uint timeEnded\r\n            ) = swapRequest.getDetails();\r\n\r\n            swapDetails[i] = SwapDetails(\r\n                isPending ? owner1 : owner2,\r\n                address(swapRequest), // _swapRequests[i] throws CompileError: Stack too deep\r\n                TokenDetails(token1, ERC20(token1).symbol(), amount1),\r\n                TokenDetails(token2, ERC20(token2).symbol(), amount2),\r\n                timeStarted,\r\n                timeEnded,\r\n                state\r\n            );\r\n        }\r\n\r\n        return swapDetails;\r\n    }\r\n}",
  "sourcePath": "D:\\PROGRAMMING\\my-swap-core\\contracts\\MySwap.sol",
  "compiler": {
    "name": "solc",
    "version": "0.8.10+commit.fc410830.Emscripten.clang"
  },
  "schemaVersion": "3.4.4",
  "updatedAt": "2021-12-28T13:28:07.913Z",
  "networkType": "ethereum",
  "devdoc": {
    "kind": "dev",
    "methods": {},
    "version": 1
  },
  "userdoc": {
    "kind": "user",
    "methods": {},
    "version": 1
  }
}